{
  "abi": [
    {
      "inputs": [
        {
          "internalType": "contract IEntryPoint",
          "name": "_entryPoint",
          "type": "address"
        },
        {
          "internalType": "address",
          "name": "_verifyingSigner",
          "type": "address"
        }
      ],
      "stateMutability": "nonpayable",
      "type": "constructor"
    },
    {
      "anonymous": false,
      "inputs": [
        {
          "indexed": true,
          "internalType": "address",
          "name": "previousOwner",
          "type": "address"
        },
        {
          "indexed": true,
          "internalType": "address",
          "name": "newOwner",
          "type": "address"
        }
      ],
      "name": "OwnershipTransferred",
      "type": "event"
    },
    {
      "inputs": [
        {
          "internalType": "uint32",
          "name": "unstakeDelaySec",
          "type": "uint32"
        }
      ],
      "name": "addStake",
      "outputs": [],
      "stateMutability": "payable",
      "type": "function"
    },
    {
      "inputs": [],
      "name": "deposit",
      "outputs": [],
      "stateMutability": "payable",
      "type": "function"
    },
    {
      "inputs": [],
      "name": "entryPoint",
      "outputs": [
        {
          "internalType": "contract IEntryPoint",
          "name": "",
          "type": "address"
        }
      ],
      "stateMutability": "view",
      "type": "function"
    },
    {
      "inputs": [],
      "name": "getDeposit",
      "outputs": [
        {
          "internalType": "uint256",
          "name": "",
          "type": "uint256"
        }
      ],
      "stateMutability": "view",
      "type": "function"
    },
    {
      "inputs": [],
      "name": "owner",
      "outputs": [
        {
          "internalType": "address",
          "name": "",
          "type": "address"
        }
      ],
      "stateMutability": "view",
      "type": "function"
    },
    {
      "inputs": [
        {
          "internalType": "enum IPaymaster.PostOpMode",
          "name": "mode",
          "type": "uint8"
        },
        {
          "internalType": "bytes",
          "name": "context",
          "type": "bytes"
        },
        {
          "internalType": "uint256",
          "name": "actualGasCost",
          "type": "uint256"
        }
      ],
      "name": "postOp",
      "outputs": [],
      "stateMutability": "nonpayable",
      "type": "function"
    },
    {
      "inputs": [],
      "name": "renounceOwnership",
      "outputs": [],
      "stateMutability": "nonpayable",
      "type": "function"
    },
    {
      "inputs": [
        {
          "internalType": "contract IEntryPoint",
          "name": "_entryPoint",
          "type": "address"
        }
      ],
      "name": "setEntryPoint",
      "outputs": [],
      "stateMutability": "nonpayable",
      "type": "function"
    },
    {
      "inputs": [
        {
          "internalType": "address",
          "name": "newOwner",
          "type": "address"
        }
      ],
      "name": "transferOwnership",
      "outputs": [],
      "stateMutability": "nonpayable",
      "type": "function"
    },
    {
      "inputs": [],
      "name": "unlockStake",
      "outputs": [],
      "stateMutability": "nonpayable",
      "type": "function"
    },
    {
      "inputs": [
        {
          "components": [
            {
              "internalType": "address",
              "name": "sender",
              "type": "address"
            },
            {
              "internalType": "uint256",
              "name": "nonce",
              "type": "uint256"
            },
            {
              "internalType": "bytes",
              "name": "initCode",
              "type": "bytes"
            },
            {
              "internalType": "bytes",
              "name": "callData",
              "type": "bytes"
            },
            {
              "internalType": "uint256",
              "name": "callGasLimit",
              "type": "uint256"
            },
            {
              "internalType": "uint256",
              "name": "verificationGasLimit",
              "type": "uint256"
            },
            {
              "internalType": "uint256",
              "name": "preVerificationGas",
              "type": "uint256"
            },
            {
              "internalType": "uint256",
              "name": "maxFeePerGas",
              "type": "uint256"
            },
            {
              "internalType": "uint256",
              "name": "maxPriorityFeePerGas",
              "type": "uint256"
            },
            {
              "internalType": "bytes",
              "name": "paymasterAndData",
              "type": "bytes"
            },
            {
              "internalType": "bytes",
              "name": "signature",
              "type": "bytes"
            }
          ],
          "internalType": "struct UserOperation",
          "name": "userOp",
          "type": "tuple"
        },
        {
          "internalType": "bytes32",
          "name": "userOpHash",
          "type": "bytes32"
        },
        {
          "internalType": "uint256",
          "name": "maxCost",
          "type": "uint256"
        }
      ],
      "name": "validatePaymasterUserOp",
      "outputs": [
        {
          "internalType": "bytes",
          "name": "context",
          "type": "bytes"
        },
        {
          "internalType": "uint256",
          "name": "deadline",
          "type": "uint256"
        }
      ],
      "stateMutability": "view",
      "type": "function"
    },
    {
      "inputs": [],
      "name": "verifyingSigner",
      "outputs": [
        {
          "internalType": "address",
          "name": "",
          "type": "address"
        }
      ],
      "stateMutability": "view",
      "type": "function"
    },
    {
      "inputs": [
        {
          "internalType": "address payable",
          "name": "withdrawAddress",
          "type": "address"
        }
      ],
      "name": "withdrawStake",
      "outputs": [],
      "stateMutability": "nonpayable",
      "type": "function"
    },
    {
      "inputs": [
        {
          "internalType": "address payable",
          "name": "withdrawAddress",
          "type": "address"
        },
        {
          "internalType": "uint256",
          "name": "amount",
          "type": "uint256"
        }
      ],
      "name": "withdrawTo",
      "outputs": [],
      "stateMutability": "nonpayable",
      "type": "function"
    }
  ],
  "bytecode": {
    "object": "0x60a060405234801561001057600080fd5b50604051610a8c380380610a8c83398101604081905261002f91610147565b8161003933610055565b610042816100a5565b506001600160a01b031660805250610181565b600080546001600160a01b038381166001600160a01b0319831681178455604051919092169283917f8be0079c531659141344cd1fd0a4f28419497f9722a3daafe3b4186f6b6457e09190a35050565b6100ad6100cf565b600180546001600160a01b0319166001600160a01b0392909216919091179055565b6000546001600160a01b0316331461012d5760405162461bcd60e51b815260206004820181905260248201527f4f776e61626c653a2063616c6c6572206973206e6f7420746865206f776e6572604482015260640160405180910390fd5b565b6001600160a01b038116811461014457600080fd5b50565b6000806040838503121561015a57600080fd5b82516101658161012f565b60208401519092506101768161012f565b809150509250929050565b6080516108f061019c600039600061012901526108f06000f3fe6080604052600436106100dd5760003560e01c8063b0d691fe1161007f578063c399ec8811610059578063c399ec8814610230578063d0e30db014610253578063f2fde38b1461025b578063f465c77e1461027b57600080fd5b8063b0d691fe146101db578063bb9fe6bf146101fb578063c23a5cea1461021057600080fd5b8063584465f2116100bb578063584465f214610168578063715018a6146101885780638da5cb5b1461019d578063a9a23409146101bb57600080fd5b80630396cb60146100e2578063205c2878146100f757806323d9ac9b14610117575b600080fd5b6100f56100f03660046106de565b6102bc565b005b34801561010357600080fd5b506100f5610112366004610720565b61032b565b34801561012357600080fd5b5061014b7f000000000000000000000000000000000000000000000000000000000000000081565b6040516001600160a01b0390911681526020015b60405180910390f35b34801561017457600080fd5b506100f561018336600461074c565b610381565b34801561019457600080fd5b506100f56103ab565b3480156101a957600080fd5b506000546001600160a01b031661014b565b3480156101c757600080fd5b506100f56101d6366004610769565b6103bf565b3480156101e757600080fd5b5060015461014b906001600160a01b031681565b34801561020757600080fd5b506100f56103d9565b34801561021c57600080fd5b506100f561022b36600461074c565b610445565b34801561023c57600080fd5b506102456104af565b60405190815260200161015f565b6100f5610521565b34801561026757600080fd5b506100f561027636600461074c565b610567565b34801561028757600080fd5b506102ae6102963660046107f8565b60408051602081019091526000808252935093915050565b60405161015f92919061084c565b6102c46105e5565b600154604051621cb65b60e51b815263ffffffff831660048201526001600160a01b0390911690630396cb609034906024016000604051808303818588803b15801561030f57600080fd5b505af1158015610323573d6000803e3d6000fd5b505050505050565b6103336105e5565b60015460405163040b850f60e31b81526001600160a01b038481166004830152602482018490529091169063205c287890604401600060405180830381600087803b15801561030f57600080fd5b6103896105e5565b600180546001600160a01b0319166001600160a01b0392909216919091179055565b6103b36105e5565b6103bd600061063f565b565b6103c761068f565b6103d3848484846106a6565b50505050565b6103e16105e5565b600160009054906101000a90046001600160a01b03166001600160a01b031663bb9fe6bf6040518163ffffffff1660e01b8152600401600060405180830381600087803b15801561043157600080fd5b505af11580156103d3573d6000803e3d6000fd5b61044d6105e5565b60015460405163611d2e7560e11b81526001600160a01b0383811660048301529091169063c23a5cea90602401600060405180830381600087803b15801561049457600080fd5b505af11580156104a8573d6000803e3d6000fd5b5050505050565b6001546040516370a0823160e01b81523060048201526000916001600160a01b0316906370a0823190602401602060405180830381865afa1580156104f8573d6000803e3d6000fd5b505050506040513d601f19601f8201168201806040525081019061051c91906108a1565b905090565b60015460405163b760faf960e01b81523060048201526001600160a01b039091169063b760faf99034906024016000604051808303818588803b15801561049457600080fd5b61056f6105e5565b6001600160a01b0381166105d95760405162461bcd60e51b815260206004820152602660248201527f4f776e61626c653a206e6577206f776e657220697320746865207a65726f206160448201526564647265737360d01b60648201526084015b60405180910390fd5b6105e28161063f565b50565b6000546001600160a01b031633146103bd5760405162461bcd60e51b815260206004820181905260248201527f4f776e61626c653a2063616c6c6572206973206e6f7420746865206f776e657260448201526064016105d0565b600080546001600160a01b038381166001600160a01b0319831681178455604051919092169283917f8be0079c531659141344cd1fd0a4f28419497f9722a3daafe3b4186f6b6457e09190a35050565b6001546001600160a01b031633146103bd57600080fd5b60405162461bcd60e51b815260206004820152600d60248201526c6d757374206f7665727269646560981b60448201526064016105d0565b6000602082840312156106f057600080fd5b813563ffffffff8116811461070457600080fd5b9392505050565b6001600160a01b03811681146105e257600080fd5b6000806040838503121561073357600080fd5b823561073e8161070b565b946020939093013593505050565b60006020828403121561075e57600080fd5b81356107048161070b565b6000806000806060858703121561077f57600080fd5b84356003811061078e57600080fd5b9350602085013567ffffffffffffffff808211156107ab57600080fd5b818701915087601f8301126107bf57600080fd5b8135818111156107ce57600080fd5b8860208285010111156107e057600080fd5b95986020929092019750949560400135945092505050565b60008060006060848603121561080d57600080fd5b833567ffffffffffffffff81111561082457600080fd5b8401610160818703121561083757600080fd5b95602085013595506040909401359392505050565b604081526000835180604084015260005b8181101561087a576020818701810151606086840101520161085d565b506000606082850101526060601f19601f8301168401019150508260208301529392505050565b6000602082840312156108b357600080fd5b505191905056fea264697066735822122005abcf2440ecdddbb3788dda65724274dc9d1bff32d11c6f149cf992f88e366764736f6c63430008130033",
    "linkReferences": {}
  },
  "methodIdentifiers": {
    "addStake(uint32)": "0396cb60",
    "deposit()": "d0e30db0",
    "entryPoint()": "b0d691fe",
    "getDeposit()": "c399ec88",
    "owner()": "8da5cb5b",
    "postOp(uint8,bytes,uint256)": "a9a23409",
    "renounceOwnership()": "715018a6",
    "setEntryPoint(address)": "584465f2",
    "transferOwnership(address)": "f2fde38b",
    "unlockStake()": "bb9fe6bf",
    "validatePaymasterUserOp((address,uint256,bytes,bytes,uint256,uint256,uint256,uint256,uint256,bytes,bytes),bytes32,uint256)": "f465c77e",
    "verifyingSigner()": "23d9ac9b",
    "withdrawStake(address)": "c23a5cea",
    "withdrawTo(address,uint256)": "205c2878"
  },
  "id": 27
}