{
  "abi": [
    {
      "inputs": [],
      "stateMutability": "payable",
      "type": "constructor"
    },
    {
      "inputs": [],
      "name": "IncorrectValue",
      "type": "error"
    },
    {
      "inputs": [],
      "name": "TooManyTokens",
      "type": "error"
    },
    {
      "inputs": [],
      "name": "WithdrawTransfer",
      "type": "error"
    },
    {
      "anonymous": false,
      "inputs": [
        {
          "indexed": true,
          "internalType": "address",
          "name": "owner",
          "type": "address"
        },
        {
          "indexed": true,
          "internalType": "address",
          "name": "spender",
          "type": "address"
        },
        {
          "indexed": true,
          "internalType": "uint256",
          "name": "id",
          "type": "uint256"
        }
      ],
      "name": "Approval",
      "type": "event"
    },
    {
      "anonymous": false,
      "inputs": [
        {
          "indexed": true,
          "internalType": "address",
          "name": "owner",
          "type": "address"
        },
        {
          "indexed": true,
          "internalType": "address",
          "name": "operator",
          "type": "address"
        },
        {
          "indexed": false,
          "internalType": "bool",
          "name": "approved",
          "type": "bool"
        }
      ],
      "name": "ApprovalForAll",
      "type": "event"
    },
    {
      "anonymous": false,
      "inputs": [
        {
          "indexed": true,
          "internalType": "address",
          "name": "previousOwner",
          "type": "address"
        },
        {
          "indexed": true,
          "internalType": "address",
          "name": "newOwner",
          "type": "address"
        }
      ],
      "name": "OwnershipTransferred",
      "type": "event"
    },
    {
      "anonymous": false,
      "inputs": [
        {
          "indexed": true,
          "internalType": "address",
          "name": "from",
          "type": "address"
        },
        {
          "indexed": true,
          "internalType": "address",
          "name": "to",
          "type": "address"
        },
        {
          "indexed": true,
          "internalType": "uint256",
          "name": "id",
          "type": "uint256"
        }
      ],
      "name": "Transfer",
      "type": "event"
    },
    {
      "inputs": [
        {
          "internalType": "address",
          "name": "spender",
          "type": "address"
        },
        {
          "internalType": "uint256",
          "name": "id",
          "type": "uint256"
        }
      ],
      "name": "approve",
      "outputs": [],
      "stateMutability": "nonpayable",
      "type": "function"
    },
    {
      "inputs": [
        {
          "internalType": "address",
          "name": "owner",
          "type": "address"
        }
      ],
      "name": "balanceOf",
      "outputs": [
        {
          "internalType": "uint256",
          "name": "",
          "type": "uint256"
        }
      ],
      "stateMutability": "view",
      "type": "function"
    },
    {
      "inputs": [],
      "name": "currentTokenId",
      "outputs": [
        {
          "internalType": "uint256",
          "name": "",
          "type": "uint256"
        }
      ],
      "stateMutability": "view",
      "type": "function"
    },
    {
      "inputs": [
        {
          "internalType": "uint256",
          "name": "",
          "type": "uint256"
        }
      ],
      "name": "getApproved",
      "outputs": [
        {
          "internalType": "address",
          "name": "",
          "type": "address"
        }
      ],
      "stateMutability": "view",
      "type": "function"
    },
    {
      "inputs": [
        {
          "internalType": "address",
          "name": "",
          "type": "address"
        },
        {
          "internalType": "address",
          "name": "",
          "type": "address"
        }
      ],
      "name": "isApprovedForAll",
      "outputs": [
        {
          "internalType": "bool",
          "name": "",
          "type": "bool"
        }
      ],
      "stateMutability": "view",
      "type": "function"
    },
    {
      "inputs": [],
      "name": "maxTokensPerTxn",
      "outputs": [
        {
          "internalType": "uint256",
          "name": "",
          "type": "uint256"
        }
      ],
      "stateMutability": "view",
      "type": "function"
    },
    {
      "inputs": [
        {
          "internalType": "uint256",
          "name": "quantity",
          "type": "uint256"
        }
      ],
      "name": "mint",
      "outputs": [],
      "stateMutability": "payable",
      "type": "function"
    },
    {
      "inputs": [],
      "name": "name",
      "outputs": [
        {
          "internalType": "string",
          "name": "",
          "type": "string"
        }
      ],
      "stateMutability": "view",
      "type": "function"
    },
    {
      "inputs": [],
      "name": "owner",
      "outputs": [
        {
          "internalType": "address",
          "name": "",
          "type": "address"
        }
      ],
      "stateMutability": "view",
      "type": "function"
    },
    {
      "inputs": [
        {
          "internalType": "uint256",
          "name": "id",
          "type": "uint256"
        }
      ],
      "name": "ownerOf",
      "outputs": [
        {
          "internalType": "address",
          "name": "owner",
          "type": "address"
        }
      ],
      "stateMutability": "view",
      "type": "function"
    },
    {
      "inputs": [],
      "name": "renounceOwnership",
      "outputs": [],
      "stateMutability": "nonpayable",
      "type": "function"
    },
    {
      "inputs": [
        {
          "internalType": "address",
          "name": "from",
          "type": "address"
        },
        {
          "internalType": "address",
          "name": "to",
          "type": "address"
        },
        {
          "internalType": "uint256",
          "name": "id",
          "type": "uint256"
        }
      ],
      "name": "safeTransferFrom",
      "outputs": [],
      "stateMutability": "nonpayable",
      "type": "function"
    },
    {
      "inputs": [
        {
          "internalType": "address",
          "name": "from",
          "type": "address"
        },
        {
          "internalType": "address",
          "name": "to",
          "type": "address"
        },
        {
          "internalType": "uint256",
          "name": "id",
          "type": "uint256"
        },
        {
          "internalType": "bytes",
          "name": "data",
          "type": "bytes"
        }
      ],
      "name": "safeTransferFrom",
      "outputs": [],
      "stateMutability": "nonpayable",
      "type": "function"
    },
    {
      "inputs": [],
      "name": "salePrice",
      "outputs": [
        {
          "internalType": "uint256",
          "name": "",
          "type": "uint256"
        }
      ],
      "stateMutability": "view",
      "type": "function"
    },
    {
      "inputs": [
        {
          "internalType": "address",
          "name": "operator",
          "type": "address"
        },
        {
          "internalType": "bool",
          "name": "approved",
          "type": "bool"
        }
      ],
      "name": "setApprovalForAll",
      "outputs": [],
      "stateMutability": "nonpayable",
      "type": "function"
    },
    {
      "inputs": [
        {
          "internalType": "string",
          "name": "baseURI",
          "type": "string"
        }
      ],
      "name": "setBaseURI",
      "outputs": [],
      "stateMutability": "nonpayable",
      "type": "function"
    },
    {
      "inputs": [
        {
          "internalType": "uint256",
          "name": "price",
          "type": "uint256"
        }
      ],
      "name": "setSalePrice",
      "outputs": [],
      "stateMutability": "nonpayable",
      "type": "function"
    },
    {
      "inputs": [
        {
          "internalType": "bytes4",
          "name": "interfaceId",
          "type": "bytes4"
        }
      ],
      "name": "supportsInterface",
      "outputs": [
        {
          "internalType": "bool",
          "name": "",
          "type": "bool"
        }
      ],
      "stateMutability": "view",
      "type": "function"
    },
    {
      "inputs": [],
      "name": "symbol",
      "outputs": [
        {
          "internalType": "string",
          "name": "",
          "type": "string"
        }
      ],
      "stateMutability": "view",
      "type": "function"
    },
    {
      "inputs": [
        {
          "internalType": "uint256",
          "name": "tokenId",
          "type": "uint256"
        }
      ],
      "name": "tokenURI",
      "outputs": [
        {
          "internalType": "string",
          "name": "",
          "type": "string"
        }
      ],
      "stateMutability": "view",
      "type": "function"
    },
    {
      "inputs": [
        {
          "internalType": "address",
          "name": "from",
          "type": "address"
        },
        {
          "internalType": "address",
          "name": "to",
          "type": "address"
        },
        {
          "internalType": "uint256",
          "name": "id",
          "type": "uint256"
        }
      ],
      "name": "transferFrom",
      "outputs": [],
      "stateMutability": "nonpayable",
      "type": "function"
    },
    {
      "inputs": [
        {
          "internalType": "address",
          "name": "newOwner",
          "type": "address"
        }
      ],
      "name": "transferOwnership",
      "outputs": [],
      "stateMutability": "nonpayable",
      "type": "function"
    },
    {
      "inputs": [],
      "name": "uri",
      "outputs": [
        {
          "internalType": "string",
          "name": "",
          "type": "string"
        }
      ],
      "stateMutability": "view",
      "type": "function"
    },
    {
      "inputs": [
        {
          "internalType": "address payable",
          "name": "payee",
          "type": "address"
        }
      ],
      "name": "withdrawPayments",
      "outputs": [],
      "stateMutability": "nonpayable",
      "type": "function"
    }
  ],
  "bytecode": {
    "object": "0x655af3107a4000600755600660085561010060405260506080818152906200176360a039600a90620000329082620001b7565b506040518060400160405280600e81526020016d54657374696e6720546f6b656e7360901b815250604051806040016040528060068152602001651613551154d560d21b81525081600090816200008a9190620001b7565b506001620000998282620001b7565b505050620000b6620000b0620000bc60201b60201c565b620000c0565b62000283565b3390565b600680546001600160a01b038381166001600160a01b0319831681179093556040519116919082907f8be0079c531659141344cd1fd0a4f28419497f9722a3daafe3b4186f6b6457e090600090a35050565b634e487b7160e01b600052604160045260246000fd5b600181811c908216806200013d57607f821691505b6020821081036200015e57634e487b7160e01b600052602260045260246000fd5b50919050565b601f821115620001b257600081815260208120601f850160051c810160208610156200018d5750805b601f850160051c820191505b81811015620001ae5782815560010162000199565b5050505b505050565b81516001600160401b03811115620001d357620001d362000112565b620001eb81620001e4845462000128565b8462000164565b602080601f8311600181146200022357600084156200020a5750858301515b600019600386901b1c1916600185901b178555620001ae565b600085815260208120601f198616915b82811015620002545788860151825594840194600190910190840162000233565b5085821015620002735787850151600019600388901b60f8161c191681555b5050505050600190811b01905550565b6114d080620002936000396000f3fe60806040526004361061014a5760003560e01c8063715018a6116100b6578063c87b56dd1161006f578063c87b56dd146103b5578063e985e9c5146103d5578063eac989f814610410578063f2fde38b14610425578063f34341c714610445578063f51f96dd1461045b57600080fd5b8063715018a61461031a5780638da5cb5b1461032f57806395d89b411461034d578063a0712d6814610362578063a22cb46514610375578063b88d4fde1461039557600080fd5b806323b872dd1161010857806323b872dd1461025a57806331b3eb941461027a57806342842e0e1461029a57806355f804b3146102ba5780636352211e146102da57806370a08231146102fa57600080fd5b80629a9b7b1461014f57806301ffc9a71461017857806306fdde03146101a8578063081812fc146101ca578063095ea7b3146102185780631919fed71461023a575b600080fd5b34801561015b57600080fd5b5061016560095481565b6040519081526020015b60405180910390f35b34801561018457600080fd5b50610198610193366004610fc7565b610471565b604051901515815260200161016f565b3480156101b457600080fd5b506101bd6104c3565b60405161016f9190610feb565b3480156101d657600080fd5b506102006101e5366004611039565b6004602052600090815260409020546001600160a01b031681565b6040516001600160a01b03909116815260200161016f565b34801561022457600080fd5b50610238610233366004611067565b610551565b005b34801561024657600080fd5b50610238610255366004611039565b610638565b34801561026657600080fd5b50610238610275366004611093565b610645565b34801561028657600080fd5b506102386102953660046110d4565b61080c565b3480156102a657600080fd5b506102386102b5366004611093565b61088d565b3480156102c657600080fd5b506102386102d536600461113a565b61095d565b3480156102e657600080fd5b506102006102f5366004611039565b610972565b34801561030657600080fd5b506101656103153660046110d4565b6109c9565b34801561032657600080fd5b50610238610a2c565b34801561033b57600080fd5b506006546001600160a01b0316610200565b34801561035957600080fd5b506101bd610a40565b610238610370366004611039565b610a4d565b34801561038157600080fd5b5061023861039036600461117c565b610adf565b3480156103a157600080fd5b506102386103b03660046111ba565b610b4b565b3480156103c157600080fd5b506101bd6103d0366004611039565b610c10565b3480156103e157600080fd5b506101986103f036600461122d565b600560209081526000928352604080842090915290825290205460ff1681565b34801561041c57600080fd5b506101bd610ca4565b34801561043157600080fd5b506102386104403660046110d4565b610cb1565b34801561045157600080fd5b5061016560085481565b34801561046757600080fd5b5061016560075481565b60006301ffc9a760e01b6001600160e01b0319831614806104a257506380ac58cd60e01b6001600160e01b03198316145b806104bd5750635b5e139f60e01b6001600160e01b03198316145b92915050565b600080546104d09061125b565b80601f01602080910402602001604051908101604052809291908181526020018280546104fc9061125b565b80156105495780601f1061051e57610100808354040283529160200191610549565b820191906000526020600020905b81548152906001019060200180831161052c57829003601f168201915b505050505081565b6000818152600260205260409020546001600160a01b03163381148061059a57506001600160a01b038116600090815260056020908152604080832033845290915290205460ff165b6105dc5760405162461bcd60e51b815260206004820152600e60248201526d1393d517d055551213d49256915160921b60448201526064015b60405180910390fd5b60008281526004602052604080822080546001600160a01b0319166001600160a01b0387811691821790925591518593918516917f8c5be1e5ebec7d5bd14f71427d1e84f3dd0314c0f7b2291e5b200ac8c7c3b92591a4505050565b610640610d2a565b600755565b6000818152600260205260409020546001600160a01b0384811691161461069b5760405162461bcd60e51b815260206004820152600a60248201526957524f4e475f46524f4d60b01b60448201526064016105d3565b6001600160a01b0382166106e55760405162461bcd60e51b81526020600482015260116024820152701253959053125117d49150d25412515395607a1b60448201526064016105d3565b336001600160a01b038416148061071f57506001600160a01b038316600090815260056020908152604080832033845290915290205460ff165b8061074057506000818152600460205260409020546001600160a01b031633145b61077d5760405162461bcd60e51b815260206004820152600e60248201526d1393d517d055551213d49256915160921b60448201526064016105d3565b6001600160a01b0380841660008181526003602090815260408083208054600019019055938616808352848320805460010190558583526002825284832080546001600160a01b03199081168317909155600490925284832080549092169091559251849392917fddf252ad1be2c89b69c2b068fc378daa952ba7f163c4a11628f55a4df523b3ef91a4505050565b610814610d2a565b60405147906000906001600160a01b0384169083908381818185875af1925050503d8060008114610861576040519150601f19603f3d011682016040523d82523d6000602084013e610866565b606091505b50509050806108885760405163d23a9e8960e01b815260040160405180910390fd5b505050565b610898838383610645565b6001600160a01b0382163b15806109415750604051630a85bd0160e11b8082523360048301526001600160a01b03858116602484015260448301849052608060648401526000608484015290919084169063150b7a029060a4016020604051808303816000875af1158015610911573d6000803e3d6000fd5b505050506040513d601f19601f820116820180604052508101906109359190611295565b6001600160e01b031916145b6108885760405162461bcd60e51b81526004016105d3906112b2565b610965610d2a565b600a610888828483611340565b6000818152600260205260409020546001600160a01b0316806109c45760405162461bcd60e51b815260206004820152600a6024820152691393d517d3525395115160b21b60448201526064016105d3565b919050565b60006001600160a01b038216610a105760405162461bcd60e51b815260206004820152600c60248201526b5a45524f5f4144445245535360a01b60448201526064016105d3565b506001600160a01b031660009081526003602052604090205490565b610a34610d2a565b610a3e6000610d84565b565b600180546104d09061125b565b80600854811115610a7157604051633a4733d960e11b815260040160405180910390fd5b813481600754610a819190611416565b14610a9f57604051636956f2ab60e11b815260040160405180910390fd5b60005b83811015610ad957610ac733600960008154610abd9061142d565b9182905550610dd6565b80610ad18161142d565b915050610aa2565b50505050565b3360008181526005602090815260408083206001600160a01b03871680855290835292819020805460ff191686151590811790915590519081529192917f17307eab39ab6107e8899845ad3d59bd9653f200f220920489ca2b5937696c31910160405180910390a35050565b610b56858585610645565b6001600160a01b0384163b1580610bed5750604051630a85bd0160e11b808252906001600160a01b0386169063150b7a0290610b9e9033908a90899089908990600401611446565b6020604051808303816000875af1158015610bbd573d6000803e3d6000fd5b505050506040513d601f19601f82011682018060405250810190610be19190611295565b6001600160e01b031916145b610c095760405162461bcd60e51b81526004016105d3906112b2565b5050505050565b6060600a8054610c1f9061125b565b80601f0160208091040260200160405190810160405280929190818152602001828054610c4b9061125b565b8015610c985780601f10610c6d57610100808354040283529160200191610c98565b820191906000526020600020905b815481529060010190602001808311610c7b57829003601f168201915b50505050509050919050565b600a80546104d09061125b565b610cb9610d2a565b6001600160a01b038116610d1e5760405162461bcd60e51b815260206004820152602660248201527f4f776e61626c653a206e6577206f776e657220697320746865207a65726f206160448201526564647265737360d01b60648201526084016105d3565b610d2781610d84565b50565b6006546001600160a01b03163314610a3e5760405162461bcd60e51b815260206004820181905260248201527f4f776e61626c653a2063616c6c6572206973206e6f7420746865206f776e657260448201526064016105d3565b600680546001600160a01b038381166001600160a01b0319831681179093556040519116919082907f8be0079c531659141344cd1fd0a4f28419497f9722a3daafe3b4186f6b6457e090600090a35050565b610de08282610ea6565b6001600160a01b0382163b1580610e865750604051630a85bd0160e11b80825233600483015260006024830181905260448301849052608060648401526084830152906001600160a01b0384169063150b7a029060a4016020604051808303816000875af1158015610e56573d6000803e3d6000fd5b505050506040513d601f19601f82011682018060405250810190610e7a9190611295565b6001600160e01b031916145b610ea25760405162461bcd60e51b81526004016105d3906112b2565b5050565b6001600160a01b038216610ef05760405162461bcd60e51b81526020600482015260116024820152701253959053125117d49150d25412515395607a1b60448201526064016105d3565b6000818152600260205260409020546001600160a01b031615610f465760405162461bcd60e51b815260206004820152600e60248201526d1053149150511657d3525395115160921b60448201526064016105d3565b6001600160a01b038216600081815260036020908152604080832080546001019055848352600290915280822080546001600160a01b0319168417905551839291907fddf252ad1be2c89b69c2b068fc378daa952ba7f163c4a11628f55a4df523b3ef908290a45050565b6001600160e01b031981168114610d2757600080fd5b600060208284031215610fd957600080fd5b8135610fe481610fb1565b9392505050565b600060208083528351808285015260005b8181101561101857858101830151858201604001528201610ffc565b506000604082860101526040601f19601f8301168501019250505092915050565b60006020828403121561104b57600080fd5b5035919050565b6001600160a01b0381168114610d2757600080fd5b6000806040838503121561107a57600080fd5b823561108581611052565b946020939093013593505050565b6000806000606084860312156110a857600080fd5b83356110b381611052565b925060208401356110c381611052565b929592945050506040919091013590565b6000602082840312156110e657600080fd5b8135610fe481611052565b60008083601f84011261110357600080fd5b50813567ffffffffffffffff81111561111b57600080fd5b60208301915083602082850101111561113357600080fd5b9250929050565b6000806020838503121561114d57600080fd5b823567ffffffffffffffff81111561116457600080fd5b611170858286016110f1565b90969095509350505050565b6000806040838503121561118f57600080fd5b823561119a81611052565b9150602083013580151581146111af57600080fd5b809150509250929050565b6000806000806000608086880312156111d257600080fd5b85356111dd81611052565b945060208601356111ed81611052565b935060408601359250606086013567ffffffffffffffff81111561121057600080fd5b61121c888289016110f1565b969995985093965092949392505050565b6000806040838503121561124057600080fd5b823561124b81611052565b915060208301356111af81611052565b600181811c9082168061126f57607f821691505b60208210810361128f57634e487b7160e01b600052602260045260246000fd5b50919050565b6000602082840312156112a757600080fd5b8151610fe481610fb1565b60208082526010908201526f155394d0519157d49150d2541251539560821b604082015260600190565b634e487b7160e01b600052604160045260246000fd5b601f82111561088857600081815260208120601f850160051c810160208610156113195750805b601f850160051c820191505b8181101561133857828155600101611325565b505050505050565b67ffffffffffffffff831115611358576113586112dc565b61136c83611366835461125b565b836112f2565b6000601f8411600181146113a057600085156113885750838201355b600019600387901b1c1916600186901b178355610c09565b600083815260209020601f19861690835b828110156113d157868501358255602094850194600190920191016113b1565b50868210156113ee5760001960f88860031b161c19848701351681555b505060018560011b0183555050505050565b634e487b7160e01b600052601160045260246000fd5b80820281158282048414176104bd576104bd611400565b60006001820161143f5761143f611400565b5060010190565b6001600160a01b038681168252851660208201526040810184905260806060820181905281018290526000828460a0840137600060a0848401015260a0601f19601f8501168301019050969550505050505056fea2646970667358221220317deec9bd3ae0ad4269a4d6b53782c4bd3765cd7905c14c71d17f49951f4adb64736f6c6343000813003368747470733a2f2f676174657761792e70696e6174612e636c6f75642f697066732f516d50757835516779504866786a7543426631474c36626e6259526f44647a7768395547646e7a32555878353844",
    "linkReferences": {}
  },
  "methodIdentifiers": {
    "approve(address,uint256)": "095ea7b3",
    "balanceOf(address)": "70a08231",
    "currentTokenId()": "009a9b7b",
    "getApproved(uint256)": "081812fc",
    "isApprovedForAll(address,address)": "e985e9c5",
    "maxTokensPerTxn()": "f34341c7",
    "mint(uint256)": "a0712d68",
    "name()": "06fdde03",
    "owner()": "8da5cb5b",
    "ownerOf(uint256)": "6352211e",
    "renounceOwnership()": "715018a6",
    "safeTransferFrom(address,address,uint256)": "42842e0e",
    "safeTransferFrom(address,address,uint256,bytes)": "b88d4fde",
    "salePrice()": "f51f96dd",
    "setApprovalForAll(address,bool)": "a22cb465",
    "setBaseURI(string)": "55f804b3",
    "setSalePrice(uint256)": "1919fed7",
    "supportsInterface(bytes4)": "01ffc9a7",
    "symbol()": "95d89b41",
    "tokenURI(uint256)": "c87b56dd",
    "transferFrom(address,address,uint256)": "23b872dd",
    "transferOwnership(address)": "f2fde38b",
    "uri()": "eac989f8",
    "withdrawPayments(address)": "31b3eb94"
  },
  "id": 26
}