{
  "abi": [
    {
      "inputs": [
        {
          "internalType": "contract IEntryPoint",
          "name": "_entryPoint",
          "type": "address"
        }
      ],
      "stateMutability": "nonpayable",
      "type": "constructor"
    },
    {
      "anonymous": false,
      "inputs": [
        {
          "indexed": true,
          "internalType": "address",
          "name": "previousOwner",
          "type": "address"
        },
        {
          "indexed": true,
          "internalType": "address",
          "name": "newOwner",
          "type": "address"
        }
      ],
      "name": "OwnershipTransferred",
      "type": "event"
    },
    {
      "inputs": [
        {
          "internalType": "uint32",
          "name": "unstakeDelaySec",
          "type": "uint32"
        }
      ],
      "name": "addStake",
      "outputs": [],
      "stateMutability": "payable",
      "type": "function"
    },
    {
      "inputs": [],
      "name": "deposit",
      "outputs": [],
      "stateMutability": "payable",
      "type": "function"
    },
    {
      "inputs": [],
      "name": "entryPoint",
      "outputs": [
        {
          "internalType": "contract IEntryPoint",
          "name": "",
          "type": "address"
        }
      ],
      "stateMutability": "view",
      "type": "function"
    },
    {
      "inputs": [],
      "name": "getDeposit",
      "outputs": [
        {
          "internalType": "uint256",
          "name": "",
          "type": "uint256"
        }
      ],
      "stateMutability": "view",
      "type": "function"
    },
    {
      "inputs": [],
      "name": "owner",
      "outputs": [
        {
          "internalType": "address",
          "name": "",
          "type": "address"
        }
      ],
      "stateMutability": "view",
      "type": "function"
    },
    {
      "inputs": [
        {
          "internalType": "enum IPaymaster.PostOpMode",
          "name": "mode",
          "type": "uint8"
        },
        {
          "internalType": "bytes",
          "name": "context",
          "type": "bytes"
        },
        {
          "internalType": "uint256",
          "name": "actualGasCost",
          "type": "uint256"
        }
      ],
      "name": "postOp",
      "outputs": [],
      "stateMutability": "nonpayable",
      "type": "function"
    },
    {
      "inputs": [],
      "name": "renounceOwnership",
      "outputs": [],
      "stateMutability": "nonpayable",
      "type": "function"
    },
    {
      "inputs": [
        {
          "internalType": "contract IEntryPoint",
          "name": "_entryPoint",
          "type": "address"
        }
      ],
      "name": "setEntryPoint",
      "outputs": [],
      "stateMutability": "nonpayable",
      "type": "function"
    },
    {
      "inputs": [
        {
          "internalType": "address",
          "name": "newOwner",
          "type": "address"
        }
      ],
      "name": "transferOwnership",
      "outputs": [],
      "stateMutability": "nonpayable",
      "type": "function"
    },
    {
      "inputs": [],
      "name": "unlockStake",
      "outputs": [],
      "stateMutability": "nonpayable",
      "type": "function"
    },
    {
      "inputs": [
        {
          "components": [
            {
              "internalType": "address",
              "name": "sender",
              "type": "address"
            },
            {
              "internalType": "uint256",
              "name": "nonce",
              "type": "uint256"
            },
            {
              "internalType": "bytes",
              "name": "initCode",
              "type": "bytes"
            },
            {
              "internalType": "bytes",
              "name": "callData",
              "type": "bytes"
            },
            {
              "internalType": "uint256",
              "name": "callGasLimit",
              "type": "uint256"
            },
            {
              "internalType": "uint256",
              "name": "verificationGasLimit",
              "type": "uint256"
            },
            {
              "internalType": "uint256",
              "name": "preVerificationGas",
              "type": "uint256"
            },
            {
              "internalType": "uint256",
              "name": "maxFeePerGas",
              "type": "uint256"
            },
            {
              "internalType": "uint256",
              "name": "maxPriorityFeePerGas",
              "type": "uint256"
            },
            {
              "internalType": "bytes",
              "name": "paymasterAndData",
              "type": "bytes"
            },
            {
              "internalType": "bytes",
              "name": "signature",
              "type": "bytes"
            }
          ],
          "internalType": "struct UserOperation",
          "name": "userOp",
          "type": "tuple"
        },
        {
          "internalType": "bytes32",
          "name": "userOpHash",
          "type": "bytes32"
        },
        {
          "internalType": "uint256",
          "name": "maxCost",
          "type": "uint256"
        }
      ],
      "name": "validatePaymasterUserOp",
      "outputs": [
        {
          "internalType": "bytes",
          "name": "context",
          "type": "bytes"
        },
        {
          "internalType": "uint256",
          "name": "deadline",
          "type": "uint256"
        }
      ],
      "stateMutability": "view",
      "type": "function"
    },
    {
      "inputs": [
        {
          "internalType": "address payable",
          "name": "withdrawAddress",
          "type": "address"
        }
      ],
      "name": "withdrawStake",
      "outputs": [],
      "stateMutability": "nonpayable",
      "type": "function"
    },
    {
      "inputs": [
        {
          "internalType": "address payable",
          "name": "withdrawAddress",
          "type": "address"
        },
        {
          "internalType": "uint256",
          "name": "amount",
          "type": "uint256"
        }
      ],
      "name": "withdrawTo",
      "outputs": [],
      "stateMutability": "nonpayable",
      "type": "function"
    }
  ],
  "bytecode": {
    "object": "0x608060405234801561001057600080fd5b506040516109ff3803806109ff83398101604081905261002f91610123565b8061003933610049565b61004281610099565b5050610153565b600080546001600160a01b038381166001600160a01b0319831681178455604051919092169283917f8be0079c531659141344cd1fd0a4f28419497f9722a3daafe3b4186f6b6457e09190a35050565b6100a16100c3565b600180546001600160a01b0319166001600160a01b0392909216919091179055565b6000546001600160a01b031633146101215760405162461bcd60e51b815260206004820181905260248201527f4f776e61626c653a2063616c6c6572206973206e6f7420746865206f776e6572604482015260640160405180910390fd5b565b60006020828403121561013557600080fd5b81516001600160a01b038116811461014c57600080fd5b9392505050565b61089d806101626000396000f3fe6080604052600436106100c25760003560e01c8063b0d691fe1161007f578063c399ec8811610059578063c399ec88146101dd578063d0e30db014610200578063f2fde38b14610208578063f465c77e1461022857600080fd5b8063b0d691fe14610188578063bb9fe6bf146101a8578063c23a5cea146101bd57600080fd5b80630396cb60146100c7578063205c2878146100dc578063584465f2146100fc578063715018a61461011c5780638da5cb5b14610131578063a9a2340914610168575b600080fd5b6100da6100d536600461068b565b610269565b005b3480156100e857600080fd5b506100da6100f73660046106cd565b6102d8565b34801561010857600080fd5b506100da6101173660046106f9565b61032e565b34801561012857600080fd5b506100da610358565b34801561013d57600080fd5b506000546001600160a01b03165b6040516001600160a01b0390911681526020015b60405180910390f35b34801561017457600080fd5b506100da610183366004610716565b61036c565b34801561019457600080fd5b5060015461014b906001600160a01b031681565b3480156101b457600080fd5b506100da610386565b3480156101c957600080fd5b506100da6101d83660046106f9565b6103f2565b3480156101e957600080fd5b506101f261045c565b60405190815260200161015f565b6100da6104ce565b34801561021457600080fd5b506100da6102233660046106f9565b610514565b34801561023457600080fd5b5061025b6102433660046107a5565b60408051602081019091526000808252935093915050565b60405161015f9291906107f9565b610271610592565b600154604051621cb65b60e51b815263ffffffff831660048201526001600160a01b0390911690630396cb609034906024016000604051808303818588803b1580156102bc57600080fd5b505af11580156102d0573d6000803e3d6000fd5b505050505050565b6102e0610592565b60015460405163040b850f60e31b81526001600160a01b038481166004830152602482018490529091169063205c287890604401600060405180830381600087803b1580156102bc57600080fd5b610336610592565b600180546001600160a01b0319166001600160a01b0392909216919091179055565b610360610592565b61036a60006105ec565b565b61037461063c565b61038084848484610653565b50505050565b61038e610592565b600160009054906101000a90046001600160a01b03166001600160a01b031663bb9fe6bf6040518163ffffffff1660e01b8152600401600060405180830381600087803b1580156103de57600080fd5b505af1158015610380573d6000803e3d6000fd5b6103fa610592565b60015460405163611d2e7560e11b81526001600160a01b0383811660048301529091169063c23a5cea90602401600060405180830381600087803b15801561044157600080fd5b505af1158015610455573d6000803e3d6000fd5b5050505050565b6001546040516370a0823160e01b81523060048201526000916001600160a01b0316906370a0823190602401602060405180830381865afa1580156104a5573d6000803e3d6000fd5b505050506040513d601f19601f820116820180604052508101906104c9919061084e565b905090565b60015460405163b760faf960e01b81523060048201526001600160a01b039091169063b760faf99034906024016000604051808303818588803b15801561044157600080fd5b61051c610592565b6001600160a01b0381166105865760405162461bcd60e51b815260206004820152602660248201527f4f776e61626c653a206e6577206f776e657220697320746865207a65726f206160448201526564647265737360d01b60648201526084015b60405180910390fd5b61058f816105ec565b50565b6000546001600160a01b0316331461036a5760405162461bcd60e51b815260206004820181905260248201527f4f776e61626c653a2063616c6c6572206973206e6f7420746865206f776e6572604482015260640161057d565b600080546001600160a01b038381166001600160a01b0319831681178455604051919092169283917f8be0079c531659141344cd1fd0a4f28419497f9722a3daafe3b4186f6b6457e09190a35050565b6001546001600160a01b0316331461036a57600080fd5b60405162461bcd60e51b815260206004820152600d60248201526c6d757374206f7665727269646560981b604482015260640161057d565b60006020828403121561069d57600080fd5b813563ffffffff811681146106b157600080fd5b9392505050565b6001600160a01b038116811461058f57600080fd5b600080604083850312156106e057600080fd5b82356106eb816106b8565b946020939093013593505050565b60006020828403121561070b57600080fd5b81356106b1816106b8565b6000806000806060858703121561072c57600080fd5b84356003811061073b57600080fd5b9350602085013567ffffffffffffffff8082111561075857600080fd5b818701915087601f83011261076c57600080fd5b81358181111561077b57600080fd5b88602082850101111561078d57600080fd5b95986020929092019750949560400135945092505050565b6000806000606084860312156107ba57600080fd5b833567ffffffffffffffff8111156107d157600080fd5b840161016081870312156107e457600080fd5b95602085013595506040909401359392505050565b604081526000835180604084015260005b81811015610827576020818701810151606086840101520161080a565b506000606082850101526060601f19601f8301168401019150508260208301529392505050565b60006020828403121561086057600080fd5b505191905056fea2646970667358221220edd951ddb5e290c2195936cc19aea4050076fbf13878e82a87be0f33431c532264736f6c63430008130033",
    "linkReferences": {}
  },
  "methodIdentifiers": {
    "addStake(uint32)": "0396cb60",
    "deposit()": "d0e30db0",
    "entryPoint()": "b0d691fe",
    "getDeposit()": "c399ec88",
    "owner()": "8da5cb5b",
    "postOp(uint8,bytes,uint256)": "a9a23409",
    "renounceOwnership()": "715018a6",
    "setEntryPoint(address)": "584465f2",
    "transferOwnership(address)": "f2fde38b",
    "unlockStake()": "bb9fe6bf",
    "validatePaymasterUserOp((address,uint256,bytes,bytes,uint256,uint256,uint256,uint256,uint256,bytes,bytes),bytes32,uint256)": "f465c77e",
    "withdrawStake(address)": "c23a5cea",
    "withdrawTo(address,uint256)": "205c2878"
  },
  "id": 8
}